{
  "contractName": "SupplyChain",
  "abi": [
    {
      "inputs": [],
      "stateMutability": "payable",
      "type": "constructor"
    },
    {
      "anonymous": false,
      "inputs": [
        {
          "indexed": false,
          "internalType": "uint256",
          "name": "upc",
          "type": "uint256"
        }
      ],
      "name": "ForSale",
      "type": "event"
    },
    {
      "anonymous": false,
      "inputs": [
        {
          "indexed": false,
          "internalType": "uint256",
          "name": "upc",
          "type": "uint256"
        }
      ],
      "name": "Harvested",
      "type": "event"
    },
    {
      "anonymous": false,
      "inputs": [
        {
          "indexed": false,
          "internalType": "uint256",
          "name": "upc",
          "type": "uint256"
        }
      ],
      "name": "Packed",
      "type": "event"
    },
    {
      "anonymous": false,
      "inputs": [
        {
          "indexed": false,
          "internalType": "uint256",
          "name": "upc",
          "type": "uint256"
        }
      ],
      "name": "Processed",
      "type": "event"
    },
    {
      "anonymous": false,
      "inputs": [
        {
          "indexed": false,
          "internalType": "uint256",
          "name": "upc",
          "type": "uint256"
        }
      ],
      "name": "Purchased",
      "type": "event"
    },
    {
      "anonymous": false,
      "inputs": [
        {
          "indexed": false,
          "internalType": "uint256",
          "name": "upc",
          "type": "uint256"
        }
      ],
      "name": "Received",
      "type": "event"
    },
    {
      "anonymous": false,
      "inputs": [
        {
          "indexed": false,
          "internalType": "uint256",
          "name": "upc",
          "type": "uint256"
        }
      ],
      "name": "Shipped",
      "type": "event"
    },
    {
      "anonymous": false,
      "inputs": [
        {
          "indexed": false,
          "internalType": "uint256",
          "name": "upc",
          "type": "uint256"
        }
      ],
      "name": "Sold",
      "type": "event"
    },
    {
      "inputs": [
        {
          "internalType": "uint256",
          "name": "_upc",
          "type": "uint256"
        },
        {
          "internalType": "address",
          "name": "_originFarmerID",
          "type": "address"
        },
        {
          "internalType": "string",
          "name": "_originFarmName",
          "type": "string"
        },
        {
          "internalType": "string",
          "name": "_originFarmInformation",
          "type": "string"
        },
        {
          "internalType": "string",
          "name": "_originFarmLatitude",
          "type": "string"
        },
        {
          "internalType": "string",
          "name": "_originFarmLongitude",
          "type": "string"
        },
        {
          "internalType": "string",
          "name": "_productNotes",
          "type": "string"
        }
      ],
      "name": "harvestItem",
      "outputs": [],
      "stateMutability": "nonpayable",
      "type": "function"
    },
    {
      "inputs": [
        {
          "internalType": "uint256",
          "name": "_upc",
          "type": "uint256"
        }
      ],
      "name": "processItem",
      "outputs": [],
      "stateMutability": "nonpayable",
      "type": "function"
    },
    {
      "inputs": [
        {
          "internalType": "uint256",
          "name": "_upc",
          "type": "uint256"
        }
      ],
      "name": "packItem",
      "outputs": [],
      "stateMutability": "nonpayable",
      "type": "function"
    },
    {
      "inputs": [
        {
          "internalType": "uint256",
          "name": "_upc",
          "type": "uint256"
        },
        {
          "internalType": "uint256",
          "name": "_price",
          "type": "uint256"
        }
      ],
      "name": "sellItem",
      "outputs": [],
      "stateMutability": "nonpayable",
      "type": "function"
    },
    {
      "inputs": [
        {
          "internalType": "uint256",
          "name": "_upc",
          "type": "uint256"
        }
      ],
      "name": "buyItem",
      "outputs": [],
      "stateMutability": "payable",
      "type": "function"
    },
    {
      "inputs": [
        {
          "internalType": "uint256",
          "name": "_upc",
          "type": "uint256"
        }
      ],
      "name": "shipItem",
      "outputs": [],
      "stateMutability": "nonpayable",
      "type": "function"
    },
    {
      "inputs": [
        {
          "internalType": "uint256",
          "name": "_upc",
          "type": "uint256"
        }
      ],
      "name": "receiveItem",
      "outputs": [],
      "stateMutability": "nonpayable",
      "type": "function"
    },
    {
      "inputs": [
        {
          "internalType": "uint256",
          "name": "_upc",
          "type": "uint256"
        }
      ],
      "name": "purchaseItem",
      "outputs": [],
      "stateMutability": "nonpayable",
      "type": "function"
    },
    {
      "inputs": [
        {
          "internalType": "uint256",
          "name": "_upc",
          "type": "uint256"
        }
      ],
      "name": "fetchItemBufferOne",
      "outputs": [
        {
          "internalType": "uint256",
          "name": "itemSKU",
          "type": "uint256"
        },
        {
          "internalType": "uint256",
          "name": "itemUPC",
          "type": "uint256"
        },
        {
          "internalType": "address",
          "name": "ownerID",
          "type": "address"
        },
        {
          "internalType": "address",
          "name": "originFarmerID",
          "type": "address"
        },
        {
          "internalType": "string",
          "name": "originFarmName",
          "type": "string"
        },
        {
          "internalType": "string",
          "name": "originFarmInformation",
          "type": "string"
        },
        {
          "internalType": "string",
          "name": "originFarmLatitude",
          "type": "string"
        },
        {
          "internalType": "string",
          "name": "originFarmLongitude",
          "type": "string"
        }
      ],
      "stateMutability": "view",
      "type": "function"
    },
    {
      "inputs": [
        {
          "internalType": "uint256",
          "name": "_upc",
          "type": "uint256"
        }
      ],
      "name": "fetchItemBufferTwo",
      "outputs": [
        {
          "internalType": "uint256",
          "name": "itemSKU",
          "type": "uint256"
        },
        {
          "internalType": "uint256",
          "name": "itemUPC",
          "type": "uint256"
        },
        {
          "internalType": "uint256",
          "name": "productID",
          "type": "uint256"
        },
        {
          "internalType": "string",
          "name": "productNotes",
          "type": "string"
        },
        {
          "internalType": "uint256",
          "name": "productPrice",
          "type": "uint256"
        },
        {
          "internalType": "uint256",
          "name": "itemState",
          "type": "uint256"
        },
        {
          "internalType": "address",
          "name": "distributorID",
          "type": "address"
        },
        {
          "internalType": "address",
          "name": "retailerID",
          "type": "address"
        },
        {
          "internalType": "address",
          "name": "consumerID",
          "type": "address"
        }
      ],
      "stateMutability": "view",
      "type": "function"
    }
  ],
  "bytecode": "0x6080604052336000806101000a81548173ffffffffffffffffffffffffffffffffffffffff021916908373ffffffffffffffffffffffffffffffffffffffff16021790555060016002819055506001808190555061237d806100626000396000f3fe6080604052600436106100915760003560e01c8063bdd8a6a811610059578063bdd8a6a81461019a578063d38ea5bf146101c3578063e7fb74c7146101ec578063f30fc48014610208578063f61c899a1461023157610091565b80632d9235611461009657806349dae766146100bf57806366225ff9146100e857806377c459131461012d578063a26be99914610171575b600080fd5b3480156100a257600080fd5b506100bd60048036038101906100b89190611cd0565b61025a565b005b3480156100cb57600080fd5b506100e660048036038101906100e19190611d10565b6103b4565b005b3480156100f457600080fd5b5061010f600480360381019061010a9190611d10565b6104f3565b60405161012499989796959493929190611e26565b60405180910390f35b34801561013957600080fd5b50610154600480360381019061014f9190611d10565b610a75565b604051610168989796959493929190611eba565b60405180910390f35b34801561017d57600080fd5b5061019860048036038101906101939190611d10565b610fcc565b005b3480156101a657600080fd5b506101c160048036038101906101bc91906120b5565b611145565b005b3480156101cf57600080fd5b506101ea60048036038101906101e59190611d10565b61151f565b005b61020660048036038101906102019190611d10565b611698565b005b34801561021457600080fd5b5061022f600480360381019061022a9190611d10565b611965565b005b34801561023d57600080fd5b5061025860048036038101906102539190611d10565b611aa4565b005b816002600781111561026f5761026e6121e3565b5b60036000838152602001908152602001600020600b0160009054906101000a900460ff1660078111156102a5576102a46121e3565b5b146102af57600080fd5b6003600084815260200190815260200160002060030160009054906101000a900473ffffffffffffffffffffffffffffffffffffffff168073ffffffffffffffffffffffffffffffffffffffff163373ffffffffffffffffffffffffffffffffffffffff161461031e57600080fd5b8260036000868152602001908152602001600020600a01819055506003806000868152602001908152602001600020600b0160006101000a81548160ff02191690836007811115610372576103716121e3565b5b02179055507fa96ae0fc3224ebd79eebfe54bd130cc9cb94416cddd1f2386115e00b72532468846040516103a69190612212565b60405180910390a150505050565b80600060078111156103c9576103c86121e3565b5b60036000838152602001908152602001600020600b0160009054906101000a900460ff1660078111156103ff576103fe6121e3565b5b1461040957600080fd5b6003600083815260200190815260200160002060030160009054906101000a900473ffffffffffffffffffffffffffffffffffffffff168073ffffffffffffffffffffffffffffffffffffffff163373ffffffffffffffffffffffffffffffffffffffff161461047857600080fd5b600160036000858152602001908152602001600020600b0160006101000a81548160ff021916908360078111156104b2576104b16121e3565b5b02179055507f5afe3b1bf87069693c075da5c22a98d63d1aef98a30dbbe538d0781a98b77ee5836040516104e69190612212565b60405180910390a1505050565b60008060006060600080600080600080600360008c8152602001908152602001600020604051806101e001604052908160008201548152602001600182015481526020016002820160009054906101000a900473ffffffffffffffffffffffffffffffffffffffff1673ffffffffffffffffffffffffffffffffffffffff1673ffffffffffffffffffffffffffffffffffffffff1681526020016003820160009054906101000a900473ffffffffffffffffffffffffffffffffffffffff1673ffffffffffffffffffffffffffffffffffffffff1673ffffffffffffffffffffffffffffffffffffffff1681526020016004820180546105f29061225c565b80601f016020809104026020016040519081016040528092919081815260200182805461061e9061225c565b801561066b5780601f106106405761010080835404028352916020019161066b565b820191906000526020600020905b81548152906001019060200180831161064e57829003601f168201915b505050505081526020016005820180546106849061225c565b80601f01602080910402602001604051908101604052809291908181526020018280546106b09061225c565b80156106fd5780601f106106d2576101008083540402835291602001916106fd565b820191906000526020600020905b8154815290600101906020018083116106e057829003601f168201915b505050505081526020016006820180546107169061225c565b80601f01602080910402602001604051908101604052809291908181526020018280546107429061225c565b801561078f5780601f106107645761010080835404028352916020019161078f565b820191906000526020600020905b81548152906001019060200180831161077257829003601f168201915b505050505081526020016007820180546107a89061225c565b80601f01602080910402602001604051908101604052809291908181526020018280546107d49061225c565b80156108215780601f106107f657610100808354040283529160200191610821565b820191906000526020600020905b81548152906001019060200180831161080457829003601f168201915b50505050508152602001600882015481526020016009820180546108449061225c565b80601f01602080910402602001604051908101604052809291908181526020018280546108709061225c565b80156108bd5780601f10610892576101008083540402835291602001916108bd565b820191906000526020600020905b8154815290600101906020018083116108a057829003601f168201915b50505050508152602001600a8201548152602001600b820160009054906101000a900460ff1660078111156108f5576108f46121e3565b5b6007811115610907576109066121e3565b5b8152602001600b820160019054906101000a900473ffffffffffffffffffffffffffffffffffffffff1673ffffffffffffffffffffffffffffffffffffffff1673ffffffffffffffffffffffffffffffffffffffff168152602001600c820160009054906101000a900473ffffffffffffffffffffffffffffffffffffffff1673ffffffffffffffffffffffffffffffffffffffff1673ffffffffffffffffffffffffffffffffffffffff168152602001600d820160009054906101000a900473ffffffffffffffffffffffffffffffffffffffff1673ffffffffffffffffffffffffffffffffffffffff1673ffffffffffffffffffffffffffffffffffffffff1681525050905080600001519950806020015198508061010001519750806101200151965080610140015195508061016001516007811115610a4d57610a4c6121e3565b5b94508061018001519350806101a001519250806101c001519150509193959799909294969850565b6000806000806060806060806000600360008b8152602001908152602001600020604051806101e001604052908160008201548152602001600182015481526020016002820160009054906101000a900473ffffffffffffffffffffffffffffffffffffffff1673ffffffffffffffffffffffffffffffffffffffff1673ffffffffffffffffffffffffffffffffffffffff1681526020016003820160009054906101000a900473ffffffffffffffffffffffffffffffffffffffff1673ffffffffffffffffffffffffffffffffffffffff1673ffffffffffffffffffffffffffffffffffffffff168152602001600482018054610b729061225c565b80601f0160208091040260200160405190810160405280929190818152602001828054610b9e9061225c565b8015610beb5780601f10610bc057610100808354040283529160200191610beb565b820191906000526020600020905b815481529060010190602001808311610bce57829003601f168201915b50505050508152602001600582018054610c049061225c565b80601f0160208091040260200160405190810160405280929190818152602001828054610c309061225c565b8015610c7d5780601f10610c5257610100808354040283529160200191610c7d565b820191906000526020600020905b815481529060010190602001808311610c6057829003601f168201915b50505050508152602001600682018054610c969061225c565b80601f0160208091040260200160405190810160405280929190818152602001828054610cc29061225c565b8015610d0f5780601f10610ce457610100808354040283529160200191610d0f565b820191906000526020600020905b815481529060010190602001808311610cf257829003601f168201915b50505050508152602001600782018054610d289061225c565b80601f0160208091040260200160405190810160405280929190818152602001828054610d549061225c565b8015610da15780601f10610d7657610100808354040283529160200191610da1565b820191906000526020600020905b815481529060010190602001808311610d8457829003601f168201915b5050505050815260200160088201548152602001600982018054610dc49061225c565b80601f0160208091040260200160405190810160405280929190818152602001828054610df09061225c565b8015610e3d5780601f10610e1257610100808354040283529160200191610e3d565b820191906000526020600020905b815481529060010190602001808311610e2057829003601f168201915b50505050508152602001600a8201548152602001600b820160009054906101000a900460ff166007811115610e7557610e746121e3565b5b6007811115610e8757610e866121e3565b5b8152602001600b820160019054906101000a900473ffffffffffffffffffffffffffffffffffffffff1673ffffffffffffffffffffffffffffffffffffffff1673ffffffffffffffffffffffffffffffffffffffff168152602001600c820160009054906101000a900473ffffffffffffffffffffffffffffffffffffffff1673ffffffffffffffffffffffffffffffffffffffff1673ffffffffffffffffffffffffffffffffffffffff168152602001600d820160009054906101000a900473ffffffffffffffffffffffffffffffffffffffff1673ffffffffffffffffffffffffffffffffffffffff1673ffffffffffffffffffffffffffffffffffffffff16815250509050806000015198508060200151975080604001519650806060015195508060a0015193508060c0015192508060e00151915050919395975091939597565b8060056007811115610fe157610fe06121e3565b5b60036000838152602001908152602001600020600b0160009054906101000a900460ff166007811115611017576110166121e3565b5b1461102157600080fd5b336003600084815260200190815260200160002060020160006101000a81548173ffffffffffffffffffffffffffffffffffffffff021916908373ffffffffffffffffffffffffffffffffffffffff1602179055503360036000848152602001908152602001600020600c0160006101000a81548173ffffffffffffffffffffffffffffffffffffffff021916908373ffffffffffffffffffffffffffffffffffffffff160217905550600660036000848152602001908152602001600020600b0160006101000a81548160ff02191690836007811115611105576111046121e3565b5b02179055507fa8142743f8f70a4c26f3691cf4ed59718381fb2f18070ec52be1f1022d855557826040516111399190612212565b60405180910390a15050565b604051806101e00160405280600254815260200188815260200160008054906101000a900473ffffffffffffffffffffffffffffffffffffffff1673ffffffffffffffffffffffffffffffffffffffff1681526020018773ffffffffffffffffffffffffffffffffffffffff1681526020018681526020018581526020018481526020018381526020016002546001546111df91906122bd565b81526020018281526020016000815260200160006007811115611205576112046121e3565b5b8152602001600073ffffffffffffffffffffffffffffffffffffffff168152602001600073ffffffffffffffffffffffffffffffffffffffff168152602001600073ffffffffffffffffffffffffffffffffffffffff1681525060036000898152602001908152602001600020600082015181600001556020820151816001015560408201518160020160006101000a81548173ffffffffffffffffffffffffffffffffffffffff021916908373ffffffffffffffffffffffffffffffffffffffff16021790555060608201518160030160006101000a81548173ffffffffffffffffffffffffffffffffffffffff021916908373ffffffffffffffffffffffffffffffffffffffff1602179055506080820151816004019080519060200190611330929190611be3565b5060a082015181600501908051906020019061134d929190611be3565b5060c082015181600601908051906020019061136a929190611be3565b5060e0820151816007019080519060200190611387929190611be3565b5061010082015181600801556101208201518160090190805190602001906113b0929190611be3565b5061014082015181600a015561016082015181600b0160006101000a81548160ff021916908360078111156113e8576113e76121e3565b5b021790555061018082015181600b0160016101000a81548173ffffffffffffffffffffffffffffffffffffffff021916908373ffffffffffffffffffffffffffffffffffffffff1602179055506101a082015181600c0160006101000a81548173ffffffffffffffffffffffffffffffffffffffff021916908373ffffffffffffffffffffffffffffffffffffffff1602179055506101c082015181600d0160006101000a81548173ffffffffffffffffffffffffffffffffffffffff021916908373ffffffffffffffffffffffffffffffffffffffff16021790555090505060016002546114d791906122bd565b6002819055507f8e55ccfc9778ff8eba1646d765cf1982537ce0f9257054a17b48aad74525018360015460405161150e9190612212565b60405180910390a150505050505050565b8060066007811115611534576115336121e3565b5b60036000838152602001908152602001600020600b0160009054906101000a900460ff16600781111561156a576115696121e3565b5b1461157457600080fd5b336003600084815260200190815260200160002060020160006101000a81548173ffffffffffffffffffffffffffffffffffffffff021916908373ffffffffffffffffffffffffffffffffffffffff1602179055503360036000848152602001908152602001600020600d0160006101000a81548173ffffffffffffffffffffffffffffffffffffffff021916908373ffffffffffffffffffffffffffffffffffffffff160217905550600760036000848152602001908152602001600020600b0160006101000a81548160ff02191690836007811115611658576116576121e3565b5b02179055507f653d56639fee6b566a5c804764e9689de38645f0b733df89a36a1b7b42173dd88260405161168c9190612212565b60405180910390a15050565b80600360078111156116ad576116ac6121e3565b5b60036000838152602001908152602001600020600b0160009054906101000a900460ff1660078111156116e3576116e26121e3565b5b146116ed57600080fd5b60036000838152602001908152602001600020600a01548034101561171157600080fd5b82336003600086815260200190815260200160002060020160006101000a81548173ffffffffffffffffffffffffffffffffffffffff021916908373ffffffffffffffffffffffffffffffffffffffff1602179055503360036000868152602001908152602001600020600b0160016101000a81548173ffffffffffffffffffffffffffffffffffffffff021916908373ffffffffffffffffffffffffffffffffffffffff160217905550600460036000868152602001908152602001600020600b0160006101000a81548160ff021916908360078111156117f6576117f56121e3565b5b021790555060006003600086815260200190815260200160002060030160009054906101000a900473ffffffffffffffffffffffffffffffffffffffff1690508073ffffffffffffffffffffffffffffffffffffffff166108fc349081150290604051600060405180830381858888f1935050505015801561187c573d6000803e3d6000fd5b507f653d56639fee6b566a5c804764e9689de38645f0b733df89a36a1b7b42173dd8856040516118ac9190612212565b60405180910390a150600060036000838152602001908152602001600020600a01549050600081346118de9190612313565b905060036000848152602001908152602001600020600d0160009054906101000a900473ffffffffffffffffffffffffffffffffffffffff1673ffffffffffffffffffffffffffffffffffffffff166108fc829081150290604051600060405180830381858888f1935050505015801561195c573d6000803e3d6000fd5b50505050505050565b806001600781111561197a576119796121e3565b5b60036000838152602001908152602001600020600b0160009054906101000a900460ff1660078111156119b0576119af6121e3565b5b146119ba57600080fd5b6003600083815260200190815260200160002060030160009054906101000a900473ffffffffffffffffffffffffffffffffffffffff168073ffffffffffffffffffffffffffffffffffffffff163373ffffffffffffffffffffffffffffffffffffffff1614611a2957600080fd5b600260036000858152602001908152602001600020600b0160006101000a81548160ff02191690836007811115611a6357611a626121e3565b5b02179055507f9b3b66e2380b690bae22c73ef1428fb0c91e72fe14a4b6defa13035214187aff83604051611a979190612212565b60405180910390a1505050565b8060046007811115611ab957611ab86121e3565b5b60036000838152602001908152602001600020600b0160009054906101000a900460ff166007811115611aef57611aee6121e3565b5b14611af957600080fd5b60036000838152602001908152602001600020600b0160019054906101000a900473ffffffffffffffffffffffffffffffffffffffff168073ffffffffffffffffffffffffffffffffffffffff163373ffffffffffffffffffffffffffffffffffffffff1614611b6857600080fd5b600560036000858152602001908152602001600020600b0160006101000a81548160ff02191690836007811115611ba257611ba16121e3565b5b02179055507ff00b9a5725b80c54016f42114f6ed7792d22eecb116011c4afac29c57bef6c9583604051611bd69190612212565b60405180910390a1505050565b828054611bef9061225c565b90600052602060002090601f016020900481019282611c115760008555611c58565b82601f10611c2a57805160ff1916838001178555611c58565b82800160010185558215611c58579182015b82811115611c57578251825591602001919060010190611c3c565b5b509050611c659190611c69565b5090565b5b80821115611c82576000816000905550600101611c6a565b5090565b6000604051905090565b600080fd5b600080fd5b6000819050919050565b611cad81611c9a565b8114611cb857600080fd5b50565b600081359050611cca81611ca4565b92915050565b60008060408385031215611ce757611ce6611c90565b5b6000611cf585828601611cbb565b9250506020611d0685828601611cbb565b9150509250929050565b600060208284031215611d2657611d25611c90565b5b6000611d3484828501611cbb565b91505092915050565b611d4681611c9a565b82525050565b600081519050919050565b600082825260208201905092915050565b60005b83811015611d86578082015181840152602081019050611d6b565b83811115611d95576000848401525b50505050565b6000601f19601f8301169050919050565b6000611db782611d4c565b611dc18185611d57565b9350611dd1818560208601611d68565b611dda81611d9b565b840191505092915050565b600073ffffffffffffffffffffffffffffffffffffffff82169050919050565b6000611e1082611de5565b9050919050565b611e2081611e05565b82525050565b600061012082019050611e3c600083018c611d3d565b611e49602083018b611d3d565b611e56604083018a611d3d565b8181036060830152611e688189611dac565b9050611e776080830188611d3d565b611e8460a0830187611d3d565b611e9160c0830186611e17565b611e9e60e0830185611e17565b611eac610100830184611e17565b9a9950505050505050505050565b600061010082019050611ed0600083018b611d3d565b611edd602083018a611d3d565b611eea6040830189611e17565b611ef76060830188611e17565b8181036080830152611f098187611dac565b905081810360a0830152611f1d8186611dac565b905081810360c0830152611f318185611dac565b905081810360e0830152611f458184611dac565b90509998505050505050505050565b611f5d81611e05565b8114611f6857600080fd5b50565b600081359050611f7a81611f54565b92915050565b600080fd5b600080fd5b7f4e487b7100000000000000000000000000000000000000000000000000000000600052604160045260246000fd5b611fc282611d9b565b810181811067ffffffffffffffff82111715611fe157611fe0611f8a565b5b80604052505050565b6000611ff4611c86565b90506120008282611fb9565b919050565b600067ffffffffffffffff8211156120205761201f611f8a565b5b61202982611d9b565b9050602081019050919050565b82818337600083830152505050565b600061205861205384612005565b611fea565b90508281526020810184848401111561207457612073611f85565b5b61207f848285612036565b509392505050565b600082601f83011261209c5761209b611f80565b5b81356120ac848260208601612045565b91505092915050565b600080600080600080600060e0888a0312156120d4576120d3611c90565b5b60006120e28a828b01611cbb565b97505060206120f38a828b01611f6b565b965050604088013567ffffffffffffffff81111561211457612113611c95565b5b6121208a828b01612087565b955050606088013567ffffffffffffffff81111561214157612140611c95565b5b61214d8a828b01612087565b945050608088013567ffffffffffffffff81111561216e5761216d611c95565b5b61217a8a828b01612087565b93505060a088013567ffffffffffffffff81111561219b5761219a611c95565b5b6121a78a828b01612087565b92505060c088013567ffffffffffffffff8111156121c8576121c7611c95565b5b6121d48a828b01612087565b91505092959891949750929550565b7f4e487b7100000000000000000000000000000000000000000000000000000000600052602160045260246000fd5b60006020820190506122276000830184611d3d565b92915050565b7f4e487b7100000000000000000000000000000000000000000000000000000000600052602260045260246000fd5b6000600282049050600182168061227457607f821691505b602082108114156122885761228761222d565b5b50919050565b7f4e487b7100000000000000000000000000000000000000000000000000000000600052601160045260246000fd5b60006122c882611c9a565b91506122d383611c9a565b9250827fffffffffffffffffffffffffffffffffffffffffffffffffffffffffffffffff038211156123085761230761228e565b5b828201905092915050565b600061231e82611c9a565b915061232983611c9a565b92508282101561233c5761233b61228e565b5b82820390509291505056fea26469706673582212208dbc22e6fa919d4b888a18c8050f4ede1a83afed7769fccb823718da8255781164736f6c63430008090033",
  "immutableReferences": {},
  "source": "// SPDX-License-Identifier: MIT\npragma solidity ^0.8.9;\n// Define a contract 'Supplychain'\ncontract SupplyChain {\n\n  // Define 'owner'\n  address owner;\n\n  // Define a variable called 'upc' for Universal Product Code (UPC)\n  uint  upc;\n\n  // Define a variable called 'sku' for Stock Keeping Unit (SKU)\n  uint  sku;\n\n  // Define a public mapping 'items' that maps the UPC to an Item.\n  mapping (uint => Item) items;\n\n  // Define a public mapping 'itemsHistory' that maps the UPC to an array of TxHash, \n  // that track its journey through the supply chain -- to be sent from DApp.\n  mapping (uint => string[]) itemsHistory;\n  \n  // Define enum 'State' with the following values:\n  enum State \n  { \n    Harvested,  // 0\n    Processed,  // 1\n    Packed,     // 2\n    ForSale,    // 3\n    Sold,       // 4\n    Shipped,    // 5\n    Received,   // 6\n    Purchased   // 7\n    }\n\n  State constant defaultState = State.Harvested;\n\n  // Define a struct 'Item' with the following fields:\n  struct Item {\n    uint    sku;  // Stock Keeping Unit (SKU)\n    uint    upc; // Universal Product Code (UPC), generated by the Farmer, goes on the package, can be verified by the Consumer\n    address ownerID;  // Metamask-Ethereum address of the current owner as the product moves through 8 stages\n    address originFarmerID; // Metamask-Ethereum address of the Farmer\n    string  originFarmName; // Farmer Name\n    string  originFarmInformation;  // Farmer Information\n    string  originFarmLatitude; // Farm Latitude\n    string  originFarmLongitude;  // Farm Longitude\n    uint    productID;  // Product ID potentially a combination of upc + sku\n    string  productNotes; // Product Notes\n    uint    productPrice; // Product Price\n    State   itemState;  // Product State as represented in the enum above\n    address distributorID;  // Metamask-Ethereum address of the Distributor\n    address retailerID; // Metamask-Ethereum address of the Retailer\n    address consumerID; // Metamask-Ethereum address of the Consumer\n  }\n\n  // Define 8 events with the same 8 state values and accept 'upc' as input argument\n  event Harvested(uint upc);\n  event Processed(uint upc);\n  event Packed(uint upc);\n  event ForSale(uint upc);\n  event Sold(uint upc);\n  event Shipped(uint upc);\n  event Received(uint upc);\n  event Purchased(uint upc);\n\n  // Define a modifer that checks to see if msg.sender == owner of the contract\n  modifier onlyOwner() {\n    require(msg.sender == owner);\n    _;\n  }\n\n  // Define a modifer that verifies the Caller\n  modifier verifyCaller (address _address) {\n    require(msg.sender == _address); \n    _;\n  }\n\n  // Define a modifier that checks if the paid amount is sufficient to cover the price\n  modifier paidEnough(uint _price) { \n    require(msg.value >= _price); \n    _;\n  }\n  \n  // Define a modifier that checks the price and refunds the remaining balance\n  modifier checkValue(uint _upc) {\n    _;\n    uint _price = items[_upc].productPrice;\n    uint amountToReturn = msg.value - _price;\n    payable(items[_upc].consumerID).transfer(amountToReturn);\n  }\n\n  // Define a modifier that checks if an item.state of a upc is Harvested\n  modifier harvested(uint _upc) {\n    require(items[_upc].itemState == State.Harvested);\n    _;\n  }\n\n  // Define a modifier that checks if an item.state of a upc is Processed\n  modifier processed(uint _upc) {\n    require(items[_upc].itemState == State.Processed);\n    _;\n  }\n  \n  // Define a modifier that checks if an item.state of a upc is Packed\n  modifier packed(uint _upc) {\n    require(items[_upc].itemState == State.Packed);\n    _;\n  }\n\n  // Define a modifier that checks if an item.state of a upc is ForSale\n  modifier forSale(uint _upc) {\n    require(items[_upc].itemState == State.ForSale);\n    _;\n  }\n\n  // Define a modifier that checks if an item.state of a upc is Sold\n  modifier sold(uint _upc) {\n    require(items[_upc].itemState == State.Sold);\n    _;\n  }\n  \n  // Define a modifier that checks if an item.state of a upc is Shipped\n  modifier shipped(uint _upc) {\n    require(items[_upc].itemState == State.Shipped);\n    _;\n  }\n\n  // Define a modifier that checks if an item.state of a upc is Received\n  modifier received(uint _upc) {\n    require(items[_upc].itemState == State.Received);\n    _;\n  }\n\n  // Define a modifier that checks if an item.state of a upc is Purchased\n  modifier purchased(uint _upc) {\n    require(items[_upc].itemState == State.Purchased);\n    _;\n  }\n\n  // In the constructor set 'owner' to the address that instantiated the contract\n  // and set 'sku' to 1\n  // and set 'upc' to 1\n  constructor() public payable {\n    owner = msg.sender;\n    sku = 1;\n    upc = 1;\n  }\n\n  // Define a function 'kill' if required\n  // function kill() public {\n  //   if (msg.sender == owner) {\n  //     selfdestruct(owner);\n  //   }\n  // }\n\n  \n\n  // Define a function 'harvestItem' that allows a farmer to mark an item 'Harvested'\n  function harvestItem(uint _upc, address _originFarmerID, string memory _originFarmName, string memory _originFarmInformation, string memory  _originFarmLatitude, string memory _originFarmLongitude, string memory _productNotes) public \n  {\n    // Add the new item as part of Harvest\n    items[_upc] = Item(\n      sku,\n      _upc,\n      owner,\n      _originFarmerID,\n      _originFarmName, \n      _originFarmInformation, \n      _originFarmLatitude, \n      _originFarmLongitude, \n      upc+sku,\n      _productNotes,\n      0,\n      State.Harvested,\n      address(0),\n      address(0),\n      address(0)\n      );\n    \n    // Increment sku\n    sku = sku + 1;\n    // Emit the appropriate event\n    emit Harvested(upc);\n    \n  }\n\n  // Define a function 'processtItem' that allows a farmer to mark an item 'Processed'\n  function processItem(uint _upc) harvested(_upc) verifyCaller(items[_upc].originFarmerID)  public \n  \n  // Call modifier to verify caller of this function\n  \n  {\n    // Update the appropriate fields\n    items[_upc].itemState = State.Processed; \n    \n    // Emit the appropriate event\n    emit Processed(_upc);\n    \n  }\n\n  // Define a function 'packItem' that allows a farmer to mark an item 'Packed'\n  function packItem(uint _upc) processed(_upc) verifyCaller(items[_upc].originFarmerID) public \n  // Call modifier to check if upc has passed previous supply chain stage\n  \n  // Call modifier to verify caller of this function\n  \n  {\n    // Update the appropriate fields\n    items[_upc].itemState = State.Packed;\n    \n    // Emit the appropriate event\n    emit Packed(_upc);\n    \n  }\n\n  // Define a function 'sellItem' that allows a farmer to mark an item 'ForSale'\n  function sellItem(uint _upc, uint _price) packed(_upc) verifyCaller(items[_upc].originFarmerID) public \n  // Call modifier to check if upc has passed previous supply chain stage\n  \n  // Call modifier to verify caller of this function\n  \n  {\n    // Update the appropriate fields\n    items[_upc].productPrice = _price;\n    items[_upc].itemState =  State.ForSale;\n    \n    // Emit the appropriate event\n    emit ForSale(_upc);\n    \n  }\n\n  // Define a function 'buyItem' that allows the disributor to mark an item 'Sold'\n  // Use the above defined modifiers to check if the item is available for sale, if the buyer has paid enough, \n  // and any excess ether sent is refunded back to the buyer\n  function buyItem(uint _upc) forSale(_upc) paidEnough(items[_upc].productPrice) checkValue(_upc) public payable \n    // Call modifier to check if upc has passed previous supply chain stage\n    \n    // Call modifer to check if buyer has paid enough\n    \n    // Call modifer to send any excess ether back to buyer\n    \n    {\n    \n    // Update the appropriate fields - ownerID, distributorID, itemState\n    items[_upc].ownerID = msg.sender;\n    items[_upc].distributorID = msg.sender;\n    items[_upc].itemState = State.Sold;\n    \n    // Transfer money to farmer\n    address farmerAddress = items[_upc].originFarmerID;\n    //Update msg.sender balance before making transfer (checks-effect pattern)\n    // msg.sender.balance = items[_upc].productPrice;\n\n    //This is done to prevent re-entrancy  https://consensys.net/diligence/blog/2019/09/stop-using-soliditys-transfer-now/\n    payable(farmerAddress).transfer(msg.value);\n\n    \n    // emit the appropriate event\"\n    emit Purchased(_upc);\n    \n  }\n\n  // Define a function 'shipItem' that allows the distributor to mark an item 'Shipped'\n  // Use the above modifers to check if the item is sold\n  function shipItem(uint _upc) sold(_upc) verifyCaller(items[_upc].distributorID) public \n    // Call modifier to check if upc has passed previous supply chain stage\n    \n    // Call modifier to verify caller of this function\n    \n    {\n    // Update the appropriate fields\n    items[_upc].itemState = State.Shipped;\n    \n    // Emit the appropriate event\n    emit Shipped(_upc);\n    \n  }\n\n  // Define a function 'receiveItem' that allows the retailer to mark an item 'Received'\n  // Use the above modifiers to check if the item is shipped\n  function receiveItem(uint _upc) shipped(_upc) public \n    // Call modifier to check if upc has passed previous supply chain stage\n    \n    // Access Control List enforced by calling Smart Contract / DApp\n    {\n    // Update the appropriate fields - ownerID, retailerID, itemState\n    items[_upc].ownerID = msg.sender;\n    items[_upc].retailerID = msg.sender;\n    items[_upc].itemState = State.Received;\n    \n    // Emit the appropriate event\n    emit Received(_upc);\n    \n  }\n\n  // Define a function 'purchaseItem' that allows the consumer to mark an item 'Purchased'\n  // Use the above modifiers to check if the item is received\n  function purchaseItem(uint _upc) received(_upc) public \n    // Call modifier to check if upc has passed previous supply chain stage\n    \n    // Access Control List enforced by calling Smart Contract / DApp\n    {\n    // Update the appropriate fields - ownerID, consumerID, itemState\n    items[_upc].ownerID = msg.sender;\n    items[_upc].consumerID = msg.sender;\n    items[_upc].itemState = State.Purchased;\n    \n    // Emit the appropriate event\n    emit Purchased(_upc);\n    \n  }\n\n  // Define a function 'fetchItemBufferOne' that fetches the data\n  function fetchItemBufferOne(uint _upc) public view returns \n  (\n  uint    itemSKU,\n  uint    itemUPC,\n  address ownerID,\n  address originFarmerID,\n  string memory originFarmName,\n  string memory originFarmInformation,\n  string memory originFarmLatitude,\n  string memory originFarmLongitude\n  ) \n  {\n  // Assign values to the 8 parameters\n  Item memory targetItem = items[_upc];\n\n  itemSKU = targetItem.sku;\n  itemUPC = targetItem.upc;\n  ownerID = targetItem.ownerID;\n  originFarmerID = targetItem.originFarmerID;\n  originFarmInformation = targetItem.originFarmInformation;\n  originFarmLatitude = targetItem.originFarmLatitude;\n  originFarmLongitude = targetItem.originFarmLongitude;\n  \n    \n  return \n  (\n  itemSKU,\n  itemUPC,\n  ownerID,\n  originFarmerID,\n  originFarmName,\n  originFarmInformation,\n  originFarmLatitude,\n  originFarmLongitude\n  );\n  }\n\n  // Define a function 'fetchItemBufferTwo' that fetches the data\n  function fetchItemBufferTwo(uint _upc) public view returns \n  (\n  uint    itemSKU,\n  uint    itemUPC,\n  uint    productID,\n  string memory productNotes,\n  uint    productPrice,\n  uint    itemState,\n  address distributorID,\n  address retailerID,\n  address consumerID\n  ) \n  {\n    // Assign values to the 9 parameters\n    Item memory targetItem = items[_upc];\n\n  itemSKU = targetItem.sku;\n  itemUPC = targetItem.upc;\n  productID = targetItem.productID;\n  productNotes = targetItem.productNotes;\n  productPrice = targetItem.productPrice;\n  itemState = uint(targetItem.itemState); \n  distributorID = targetItem.distributorID;\n  retailerID = targetItem.retailerID;\n  consumerID = targetItem.consumerID;\n  \n    \n  return \n  (\n  itemSKU,\n  itemUPC,\n  productID,\n  productNotes,\n  productPrice,\n  itemState,\n  distributorID,\n  retailerID,\n  consumerID\n  );\n  }\n}\n",
  "sourcePath": "/Users/apple/Documents/personal/tutorials/ethereum/coffee-chain/coffee-supply-chain/contracts/coffeebase/SupplyChain.sol",
  "compiler": {
    "name": "solc",
    "version": "0.8.9+commit.e5eed63a.Emscripten.clang"
  },
  "schemaVersion": "3.4.6",
  "updatedAt": "2022-03-27T20:41:12.521Z",
  "devdoc": {
    "kind": "dev",
    "methods": {},
    "version": 1
  },
  "userdoc": {
    "kind": "user",
    "methods": {},
    "version": 1
  }
}